{
  "_format": "hh3-artifact-1",
  "contractName": "ArbEngine",
  "sourceName": "contracts/ArbEngine.sol",
  "abi": [
    {
      "inputs": [
        {
          "internalType": "address",
          "name": "_poolAddressProvider",
          "type": "address"
        },
        {
          "internalType": "address",
          "name": "_uniswapRouter",
          "type": "address"
        }
      ],
      "stateMutability": "nonpayable",
      "type": "constructor"
    },
    {
      "inputs": [
        {
          "internalType": "address",
          "name": "token",
          "type": "address"
        }
      ],
      "name": "SafeERC20FailedOperation",
      "type": "error"
    },
    {
      "inputs": [],
      "name": "ADDRESSES_PROVIDER",
      "outputs": [
        {
          "internalType": "contract IPoolAddressesProvider",
          "name": "",
          "type": "address"
        }
      ],
      "stateMutability": "view",
      "type": "function"
    },
    {
      "inputs": [],
      "name": "POOL",
      "outputs": [
        {
          "internalType": "contract IPool",
          "name": "",
          "type": "address"
        }
      ],
      "stateMutability": "view",
      "type": "function"
    },
    {
      "inputs": [],
      "name": "aavePool",
      "outputs": [
        {
          "internalType": "contract IPool",
          "name": "",
          "type": "address"
        }
      ],
      "stateMutability": "view",
      "type": "function"
    },
    {
      "inputs": [
        {
          "internalType": "address",
          "name": "asset",
          "type": "address"
        },
        {
          "internalType": "uint256",
          "name": "amount",
          "type": "uint256"
        },
        {
          "internalType": "uint256",
          "name": "premium",
          "type": "uint256"
        },
        {
          "internalType": "address",
          "name": "initiator",
          "type": "address"
        },
        {
          "internalType": "bytes",
          "name": "",
          "type": "bytes"
        }
      ],
      "name": "executeOperation",
      "outputs": [
        {
          "internalType": "bool",
          "name": "",
          "type": "bool"
        }
      ],
      "stateMutability": "nonpayable",
      "type": "function"
    },
    {
      "inputs": [],
      "name": "owner",
      "outputs": [
        {
          "internalType": "address",
          "name": "",
          "type": "address"
        }
      ],
      "stateMutability": "view",
      "type": "function"
    },
    {
      "inputs": [
        {
          "internalType": "address",
          "name": "asset",
          "type": "address"
        },
        {
          "internalType": "uint256",
          "name": "amount",
          "type": "uint256"
        }
      ],
      "name": "startArbitrage",
      "outputs": [],
      "stateMutability": "nonpayable",
      "type": "function"
    },
    {
      "inputs": [],
      "name": "uniswapRouter",
      "outputs": [
        {
          "internalType": "contract IUniswapV2Router02",
          "name": "",
          "type": "address"
        }
      ],
      "stateMutability": "view",
      "type": "function"
    },
    {
      "inputs": [
        {
          "internalType": "address",
          "name": "token",
          "type": "address"
        }
      ],
      "name": "withdraw",
      "outputs": [],
      "stateMutability": "nonpayable",
      "type": "function"
    }
  ],
  "bytecode": "0x608060405234801562000010575f80fd5b50604051620016e4380380620016e48339818101604052810190620000369190620001d1565b335f806101000a81548173ffffffffffffffffffffffffffffffffffffffff021916908373ffffffffffffffffffffffffffffffffffffffff1602179055508173ffffffffffffffffffffffffffffffffffffffff1663026b1d5f6040518163ffffffff1660e01b8152600401602060405180830381865afa158015620000bf573d5f803e3d5ffd5b505050506040513d601f19601f82011682018060405250810190620000e5919062000216565b60015f6101000a81548173ffffffffffffffffffffffffffffffffffffffff021916908373ffffffffffffffffffffffffffffffffffffffff1602179055508060025f6101000a81548173ffffffffffffffffffffffffffffffffffffffff021916908373ffffffffffffffffffffffffffffffffffffffff160217905550505062000246565b5f80fd5b5f73ffffffffffffffffffffffffffffffffffffffff82169050919050565b5f6200019b8262000170565b9050919050565b620001ad816200018f565b8114620001b8575f80fd5b50565b5f81519050620001cb81620001a2565b92915050565b5f8060408385031215620001ea57620001e96200016c565b5b5f620001f985828601620001bb565b92505060206200020c85828601620001bb565b9150509250929050565b5f602082840312156200022e576200022d6200016c565b5b5f6200023d84828501620001bb565b91505092915050565b61149080620002545f395ff3fe608060405234801561000f575f80fd5b5060043610610086575f3560e01c80637535d246116100595780637535d24614610112578063849eb7d5146101305780638da5cb5b1461014c578063a03e4bc31461016a57610086565b80630542975c1461008a5780631b11d0ff146100a857806351cff8d9146100d8578063735de9f7146100f4575b5f80fd5b610092610188565b60405161009f9190610ad1565b60405180910390f35b6100c260048036038101906100bd9190610bca565b6101b0565b6040516100cf9190610c7a565b60405180910390f35b6100f260048036038101906100ed9190610c93565b610624565b005b6100fc61077a565b6040516101099190610cde565b60405180910390f35b61011a61079f565b6040516101279190610d17565b60405180910390f35b61014a60048036038101906101459190610d30565b6107c7565b005b6101546108f5565b6040516101619190610d7d565b60405180910390f35b610172610918565b60405161017f9190610d17565b60405180910390f35b5f60015f9054906101000a900473ffffffffffffffffffffffffffffffffffffffff16905090565b5f60015f9054906101000a900473ffffffffffffffffffffffffffffffffffffffff1673ffffffffffffffffffffffffffffffffffffffff163373ffffffffffffffffffffffffffffffffffffffff1614610240576040517f08c379a000000000000000000000000000000000000000000000000000000000815260040161023790610df0565b60405180910390fd5b3073ffffffffffffffffffffffffffffffffffffffff168473ffffffffffffffffffffffffffffffffffffffff16146102ae576040517f08c379a00000000000000000000000000000000000000000000000000000000081526004016102a590610e58565b60405180910390fd5b5f600267ffffffffffffffff8111156102ca576102c9610e76565b5b6040519080825280602002602001820160405280156102f85781602001602082028036833780820191505090505b50905087815f8151811061030f5761030e610ea3565b5b602002602001019073ffffffffffffffffffffffffffffffffffffffff16908173ffffffffffffffffffffffffffffffffffffffff168152505060025f9054906101000a900473ffffffffffffffffffffffffffffffffffffffff1673ffffffffffffffffffffffffffffffffffffffff1663ad5c46486040518163ffffffff1660e01b8152600401602060405180830381865afa1580156103b3573d5f803e3d5ffd5b505050506040513d601f19601f820116820180604052508101906103d79190610ee4565b816001815181106103eb576103ea610ea3565b5b602002602001019073ffffffffffffffffffffffffffffffffffffffff16908173ffffffffffffffffffffffffffffffffffffffff16815250508773ffffffffffffffffffffffffffffffffffffffff1663095ea7b360025f9054906101000a900473ffffffffffffffffffffffffffffffffffffffff16896040518363ffffffff1660e01b8152600401610481929190610f1e565b6020604051808303815f875af115801561049d573d5f803e3d5ffd5b505050506040513d601f19601f820116820180604052508101906104c19190610f6f565b5060025f9054906101000a900473ffffffffffffffffffffffffffffffffffffffff1673ffffffffffffffffffffffffffffffffffffffff166338ed1739885f8430426040518663ffffffff1660e01b815260040161052495949392919061108a565b5f604051808303815f875af115801561053f573d5f803e3d5ffd5b505050506040513d5f823e3d601f19601f820116820180604052508101906105679190611211565b505f86886105759190611285565b90508873ffffffffffffffffffffffffffffffffffffffff1663095ea7b360015f9054906101000a900473ffffffffffffffffffffffffffffffffffffffff16836040518363ffffffff1660e01b81526004016105d3929190610f1e565b6020604051808303815f875af11580156105ef573d5f803e3d5ffd5b505050506040513d601f19601f820116820180604052508101906106139190610f6f565b506001925050509695505050505050565b5f8054906101000a900473ffffffffffffffffffffffffffffffffffffffff1673ffffffffffffffffffffffffffffffffffffffff163373ffffffffffffffffffffffffffffffffffffffff16146106b1576040517f08c379a00000000000000000000000000000000000000000000000000000000081526004016106a890611302565b60405180910390fd5b5f8173ffffffffffffffffffffffffffffffffffffffff166370a08231306040518263ffffffff1660e01b81526004016106eb9190610d7d565b602060405180830381865afa158015610706573d5f803e3d5ffd5b505050506040513d601f19601f8201168201806040525081019061072a9190611320565b90506107765f8054906101000a900473ffffffffffffffffffffffffffffffffffffffff16828473ffffffffffffffffffffffffffffffffffffffff1661093d9092919063ffffffff16565b5050565b60025f9054906101000a900473ffffffffffffffffffffffffffffffffffffffff1681565b5f60015f9054906101000a900473ffffffffffffffffffffffffffffffffffffffff16905090565b5f8054906101000a900473ffffffffffffffffffffffffffffffffffffffff1673ffffffffffffffffffffffffffffffffffffffff163373ffffffffffffffffffffffffffffffffffffffff1614610854576040517f08c379a000000000000000000000000000000000000000000000000000000000815260040161084b90611302565b60405180910390fd5b60015f9054906101000a900473ffffffffffffffffffffffffffffffffffffffff1673ffffffffffffffffffffffffffffffffffffffff166342b0b77c30848460405180602001604052805f8152505f6040518663ffffffff1660e01b81526004016108c4959493929190611402565b5f604051808303815f87803b1580156108db575f80fd5b505af11580156108ed573d5f803e3d5ffd5b505050505050565b5f8054906101000a900473ffffffffffffffffffffffffffffffffffffffff1681565b60015f9054906101000a900473ffffffffffffffffffffffffffffffffffffffff1681565b6109b7838473ffffffffffffffffffffffffffffffffffffffff1663a9059cbb8585604051602401610970929190610f1e565b604051602081830303815290604052915060e01b6020820180517bffffffffffffffffffffffffffffffffffffffffffffffffffffffff83818316178352505050506109bc565b505050565b5f8060205f8451602086015f885af1806109db576040513d5f823e3d81fd5b3d92505f519150505f82146109f4576001811415610a0f565b5f8473ffffffffffffffffffffffffffffffffffffffff163b145b15610a5157836040517f5274afe7000000000000000000000000000000000000000000000000000000008152600401610a489190610d7d565b60405180910390fd5b50505050565b5f73ffffffffffffffffffffffffffffffffffffffff82169050919050565b5f819050919050565b5f610a99610a94610a8f84610a57565b610a76565b610a57565b9050919050565b5f610aaa82610a7f565b9050919050565b5f610abb82610aa0565b9050919050565b610acb81610ab1565b82525050565b5f602082019050610ae45f830184610ac2565b92915050565b5f604051905090565b5f80fd5b5f80fd5b5f610b0582610a57565b9050919050565b610b1581610afb565b8114610b1f575f80fd5b50565b5f81359050610b3081610b0c565b92915050565b5f819050919050565b610b4881610b36565b8114610b52575f80fd5b50565b5f81359050610b6381610b3f565b92915050565b5f80fd5b5f80fd5b5f80fd5b5f8083601f840112610b8a57610b89610b69565b5b8235905067ffffffffffffffff811115610ba757610ba6610b6d565b5b602083019150836001820283011115610bc357610bc2610b71565b5b9250929050565b5f805f805f8060a08789031215610be457610be3610af3565b5b5f610bf189828a01610b22565b9650506020610c0289828a01610b55565b9550506040610c1389828a01610b55565b9450506060610c2489828a01610b22565b935050608087013567ffffffffffffffff811115610c4557610c44610af7565b5b610c5189828a01610b75565b92509250509295509295509295565b5f8115159050919050565b610c7481610c60565b82525050565b5f602082019050610c8d5f830184610c6b565b92915050565b5f60208284031215610ca857610ca7610af3565b5b5f610cb584828501610b22565b91505092915050565b5f610cc882610aa0565b9050919050565b610cd881610cbe565b82525050565b5f602082019050610cf15f830184610ccf565b92915050565b5f610d0182610aa0565b9050919050565b610d1181610cf7565b82525050565b5f602082019050610d2a5f830184610d08565b92915050565b5f8060408385031215610d4657610d45610af3565b5b5f610d5385828601610b22565b9250506020610d6485828601610b55565b9150509250929050565b610d7781610afb565b82525050565b5f602082019050610d905f830184610d6e565b92915050565b5f82825260208201905092915050565b7f43616c6c6572206d757374206265204161766520706f6f6c00000000000000005f82015250565b5f610dda601883610d96565b9150610de582610da6565b602082019050919050565b5f6020820190508181035f830152610e0781610dce565b9050919050565b7f4f6e6c792073656c662063616e20696e697469617465000000000000000000005f82015250565b5f610e42601683610d96565b9150610e4d82610e0e565b602082019050919050565b5f6020820190508181035f830152610e6f81610e36565b9050919050565b7f4e487b71000000000000000000000000000000000000000000000000000000005f52604160045260245ffd5b7f4e487b71000000000000000000000000000000000000000000000000000000005f52603260045260245ffd5b5f81519050610ede81610b0c565b92915050565b5f60208284031215610ef957610ef8610af3565b5b5f610f0684828501610ed0565b91505092915050565b610f1881610b36565b82525050565b5f604082019050610f315f830185610d6e565b610f3e6020830184610f0f565b9392505050565b610f4e81610c60565b8114610f58575f80fd5b50565b5f81519050610f6981610f45565b92915050565b5f60208284031215610f8457610f83610af3565b5b5f610f9184828501610f5b565b91505092915050565b5f819050919050565b5f610fbd610fb8610fb384610f9a565b610a76565b610b36565b9050919050565b610fcd81610fa3565b82525050565b5f81519050919050565b5f82825260208201905092915050565b5f819050602082019050919050565b61100581610afb565b82525050565b5f6110168383610ffc565b60208301905092915050565b5f602082019050919050565b5f61103882610fd3565b6110428185610fdd565b935061104d83610fed565b805f5b8381101561107d578151611064888261100b565b975061106f83611022565b925050600181019050611050565b5085935050505092915050565b5f60a08201905061109d5f830188610f0f565b6110aa6020830187610fc4565b81810360408301526110bc818661102e565b90506110cb6060830185610d6e565b6110d86080830184610f0f565b9695505050505050565b5f601f19601f8301169050919050565b6110fb826110e2565b810181811067ffffffffffffffff8211171561111a57611119610e76565b5b80604052505050565b5f61112c610aea565b905061113882826110f2565b919050565b5f67ffffffffffffffff82111561115757611156610e76565b5b602082029050602081019050919050565b5f8151905061117681610b3f565b92915050565b5f61118e6111898461113d565b611123565b905080838252602082019050602084028301858111156111b1576111b0610b71565b5b835b818110156111da57806111c68882611168565b8452602084019350506020810190506111b3565b5050509392505050565b5f82601f8301126111f8576111f7610b69565b5b815161120884826020860161117c565b91505092915050565b5f6020828403121561122657611225610af3565b5b5f82015167ffffffffffffffff81111561124357611242610af7565b5b61124f848285016111e4565b91505092915050565b7f4e487b71000000000000000000000000000000000000000000000000000000005f52601160045260245ffd5b5f61128f82610b36565b915061129a83610b36565b92508282019050808211156112b2576112b1611258565b5b92915050565b7f4e6f7420617574686f72697a65640000000000000000000000000000000000005f82015250565b5f6112ec600e83610d96565b91506112f7826112b8565b602082019050919050565b5f6020820190508181035f830152611319816112e0565b9050919050565b5f6020828403121561133557611334610af3565b5b5f61134284828501611168565b91505092915050565b5f81519050919050565b5f82825260208201905092915050565b5f5b83811015611382578082015181840152602081019050611367565b5f8484015250505050565b5f6113978261134b565b6113a18185611355565b93506113b1818560208601611365565b6113ba816110e2565b840191505092915050565b5f61ffff82169050919050565b5f6113ec6113e76113e284610f9a565b610a76565b6113c5565b9050919050565b6113fc816113d2565b82525050565b5f60a0820190506114155f830188610d6e565b6114226020830187610d6e565b61142f6040830186610f0f565b8181036060830152611441818561138d565b905061145060808301846113f3565b969550505050505056fea2646970667358221220c10d7f123b7e97e196269b0450ee57f37cdd7629e54fbe2c329688cd2979453e64736f6c63430008140033",
  "linkReferences": {},
  "deployedLinkReferences": {},
  "immutableReferences": {},
  "inputSourceName": "project/contracts/ArbEngine.sol",
  "buildInfoId": "solc-0_8_20-8b84972b50bb17305edde24e9641b2bf0eb3e7e7"
}